{
  "contractName": "HEALTHRECORD",
  "abi": [
    {
      "anonymous": false,
      "inputs": [
        {
          "indexed": false,
          "internalType": "address",
          "name": "doctorId",
          "type": "address"
        }
      ],
      "name": "DoctorAdded",
      "type": "event"
    },
    {
      "anonymous": false,
      "inputs": [
        {
          "indexed": false,
          "internalType": "address",
          "name": "patientId",
          "type": "address"
        }
      ],
      "name": "PatientAdded",
      "type": "event"
    },
    {
      "anonymous": false,
      "inputs": [
        {
          "indexed": false,
          "internalType": "string",
          "name": "cid",
          "type": "string"
        },
        {
          "indexed": false,
          "internalType": "address",
          "name": "patientId",
          "type": "address"
        },
        {
          "indexed": false,
          "internalType": "address",
          "name": "doctorId",
          "type": "address"
        }
      ],
      "name": "RecordAdded",
      "type": "event"
    },
    {
      "inputs": [
        {
          "internalType": "address",
          "name": "",
          "type": "address"
        }
      ],
      "name": "doctors",
      "outputs": [
        {
          "internalType": "address",
          "name": "id",
          "type": "address"
        }
      ],
      "stateMutability": "view",
      "type": "function",
      "constant": true
    },
    {
      "inputs": [
        {
          "internalType": "address",
          "name": "",
          "type": "address"
        }
      ],
      "name": "patients",
      "outputs": [
        {
          "internalType": "address",
          "name": "id",
          "type": "address"
        }
      ],
      "stateMutability": "view",
      "type": "function",
      "constant": true
    },
    {
      "inputs": [
        {
          "internalType": "address",
          "name": "_patientId",
          "type": "address"
        }
      ],
      "name": "addPatient",
      "outputs": [],
      "stateMutability": "nonpayable",
      "type": "function"
    },
    {
      "inputs": [],
      "name": "addDoctor",
      "outputs": [],
      "stateMutability": "nonpayable",
      "type": "function"
    },
    {
      "inputs": [
        {
          "internalType": "string",
          "name": "_cid",
          "type": "string"
        },
        {
          "internalType": "string",
          "name": "_fileName",
          "type": "string"
        },
        {
          "internalType": "address",
          "name": "_patientId",
          "type": "address"
        }
      ],
      "name": "addRecord",
      "outputs": [],
      "stateMutability": "nonpayable",
      "type": "function"
    },
    {
      "inputs": [
        {
          "internalType": "address",
          "name": "_patientId",
          "type": "address"
        }
      ],
      "name": "getRecords",
      "outputs": [
        {
          "components": [
            {
              "internalType": "string",
              "name": "cid",
              "type": "string"
            },
            {
              "internalType": "string",
              "name": "fileName",
              "type": "string"
            },
            {
              "internalType": "address",
              "name": "patientId",
              "type": "address"
            },
            {
              "internalType": "address",
              "name": "doctorId",
              "type": "address"
            },
            {
              "internalType": "uint256",
              "name": "timeAdded",
              "type": "uint256"
            }
          ],
          "internalType": "struct HEALTHRECORD.Record[]",
          "name": "",
          "type": "tuple[]"
        }
      ],
      "stateMutability": "view",
      "type": "function",
      "constant": true
    },
    {
      "inputs": [],
      "name": "getSenderRole",
      "outputs": [
        {
          "internalType": "string",
          "name": "",
          "type": "string"
        }
      ],
      "stateMutability": "view",
      "type": "function",
      "constant": true
    },
    {
      "inputs": [
        {
          "internalType": "address",
          "name": "_patientId",
          "type": "address"
        }
      ],
      "name": "getPatientExists",
      "outputs": [
        {
          "internalType": "bool",
          "name": "",
          "type": "bool"
        }
      ],
      "stateMutability": "view",
      "type": "function",
      "constant": true
    }
  ],
  "bytecode": "0x608060405234801561000f575f80fd5b50611b6b8061001d5f395ff3fe608060405234801561000f575f80fd5b5060043610610086575f3560e01c806375a3f4e31161005957806375a3f4e3146101105780637bc769ed1461011a578063a0076e841461014a578063a9583c221461017a57610086565b80630869cfbc1461008a5780633a88162e146100ba57806356daecb3146100d85780636d263ceb146100f4575b5f80fd5b6100a4600480360381019061009f9190611180565b6101aa565b6040516100b191906111ba565b60405180910390f35b6100c26101e2565b6040516100cf919061125d565b60405180910390f35b6100f260048036038101906100ed91906113a9565b6103bb565b005b61010e60048036038101906101099190611180565b610713565b005b610118610960565b005b610134600480360381019061012f9190611180565b610ae2565b604051610141919061144b565b60405180910390f35b610164600480360381019061015f9190611180565b610c42565b6040516101719190611608565b60405180910390f35b610194600480360381019061018f9190611180565b6110dc565b6040516101a191906111ba565b60405180910390f35b5f602052805f5260405f205f91509050805f015f9054906101000a900473ffffffffffffffffffffffffffffffffffffffff16905081565b60603373ffffffffffffffffffffffffffffffffffffffff1660015f3373ffffffffffffffffffffffffffffffffffffffff1673ffffffffffffffffffffffffffffffffffffffff1681526020019081526020015f205f015f9054906101000a900473ffffffffffffffffffffffffffffffffffffffff1673ffffffffffffffffffffffffffffffffffffffff16036102b2576040518060400160405280600681526020017f646f63746f72000000000000000000000000000000000000000000000000000081525090506103b8565b3373ffffffffffffffffffffffffffffffffffffffff165f803373ffffffffffffffffffffffffffffffffffffffff1673ffffffffffffffffffffffffffffffffffffffff1681526020019081526020015f205f015f9054906101000a900473ffffffffffffffffffffffffffffffffffffffff1673ffffffffffffffffffffffffffffffffffffffff160361037f576040518060400160405280600781526020017f70617469656e740000000000000000000000000000000000000000000000000081525090506103b8565b6040518060400160405280600781526020017f756e6b6e6f776e0000000000000000000000000000000000000000000000000081525090505b90565b3373ffffffffffffffffffffffffffffffffffffffff1660015f3373ffffffffffffffffffffffffffffffffffffffff1673ffffffffffffffffffffffffffffffffffffffff1681526020019081526020015f205f015f9054906101000a900473ffffffffffffffffffffffffffffffffffffffff1673ffffffffffffffffffffffffffffffffffffffff1614610487576040517f08c379a000000000000000000000000000000000000000000000000000000000815260040161047e90611672565b60405180910390fd5b808073ffffffffffffffffffffffffffffffffffffffff165f808373ffffffffffffffffffffffffffffffffffffffff1673ffffffffffffffffffffffffffffffffffffffff1681526020019081526020015f205f015f9054906101000a900473ffffffffffffffffffffffffffffffffffffffff1673ffffffffffffffffffffffffffffffffffffffff1614610553576040517f08c379a000000000000000000000000000000000000000000000000000000000815260040161054a906116da565b60405180910390fd5b5f6040518060a001604052808681526020018581526020018473ffffffffffffffffffffffffffffffffffffffff1681526020013373ffffffffffffffffffffffffffffffffffffffff1681526020014281525090505f808473ffffffffffffffffffffffffffffffffffffffff1673ffffffffffffffffffffffffffffffffffffffff1681526020019081526020015f2060010181908060018154018082558091505060019003905f5260205f2090600502015f909190919091505f820151815f01908161062291906118f2565b50602082015181600101908161063891906118f2565b506040820151816002015f6101000a81548173ffffffffffffffffffffffffffffffffffffffff021916908373ffffffffffffffffffffffffffffffffffffffff1602179055506060820151816003015f6101000a81548173ffffffffffffffffffffffffffffffffffffffff021916908373ffffffffffffffffffffffffffffffffffffffff1602179055506080820151816004015550507f79439a93ba0b8067e556b3942a78ac58d991c58e2e23041c4e7aa1c446fc1188858433604051610704939291906119c1565b60405180910390a15050505050565b3373ffffffffffffffffffffffffffffffffffffffff1660015f3373ffffffffffffffffffffffffffffffffffffffff1673ffffffffffffffffffffffffffffffffffffffff1681526020019081526020015f205f015f9054906101000a900473ffffffffffffffffffffffffffffffffffffffff1673ffffffffffffffffffffffffffffffffffffffff16146107df576040517f08c379a00000000000000000000000000000000000000000000000000000000081526004016107d690611672565b60405180910390fd5b8073ffffffffffffffffffffffffffffffffffffffff165f808373ffffffffffffffffffffffffffffffffffffffff1673ffffffffffffffffffffffffffffffffffffffff1681526020019081526020015f205f015f9054906101000a900473ffffffffffffffffffffffffffffffffffffffff1673ffffffffffffffffffffffffffffffffffffffff16036108aa576040517f08c379a00000000000000000000000000000000000000000000000000000000081526004016108a190611a47565b60405180910390fd5b805f808373ffffffffffffffffffffffffffffffffffffffff1673ffffffffffffffffffffffffffffffffffffffff1681526020019081526020015f205f015f6101000a81548173ffffffffffffffffffffffffffffffffffffffff021916908373ffffffffffffffffffffffffffffffffffffffff1602179055507fa58cff07db0adda3ab7a40bd2f18ab57210bf38391a52ffd2e8eee6b8bdec71a8160405161095591906111ba565b60405180910390a150565b3373ffffffffffffffffffffffffffffffffffffffff1660015f3373ffffffffffffffffffffffffffffffffffffffff1673ffffffffffffffffffffffffffffffffffffffff1681526020019081526020015f205f015f9054906101000a900473ffffffffffffffffffffffffffffffffffffffff1673ffffffffffffffffffffffffffffffffffffffff1603610a2c576040517f08c379a0000000000000000000000000000000000000000000000000000000008152600401610a2390611aaf565b60405180910390fd5b3360015f3373ffffffffffffffffffffffffffffffffffffffff1673ffffffffffffffffffffffffffffffffffffffff1681526020019081526020015f205f015f6101000a81548173ffffffffffffffffffffffffffffffffffffffff021916908373ffffffffffffffffffffffffffffffffffffffff1602179055507f69908b2e63170aa89ef89719bbe3b4c92cccc38653968ab25f4464eff7c28ac833604051610ad891906111ba565b60405180910390a1565b5f3373ffffffffffffffffffffffffffffffffffffffff1660015f3373ffffffffffffffffffffffffffffffffffffffff1673ffffffffffffffffffffffffffffffffffffffff1681526020019081526020015f205f015f9054906101000a900473ffffffffffffffffffffffffffffffffffffffff1673ffffffffffffffffffffffffffffffffffffffff1614610baf576040517f08c379a0000000000000000000000000000000000000000000000000000000008152600401610ba690611672565b60405180910390fd5b8173ffffffffffffffffffffffffffffffffffffffff165f808473ffffffffffffffffffffffffffffffffffffffff1673ffffffffffffffffffffffffffffffffffffffff1681526020019081526020015f205f015f9054906101000a900473ffffffffffffffffffffffffffffffffffffffff1673ffffffffffffffffffffffffffffffffffffffff16149050919050565b60603373ffffffffffffffffffffffffffffffffffffffff1660015f3373ffffffffffffffffffffffffffffffffffffffff1673ffffffffffffffffffffffffffffffffffffffff1681526020019081526020015f205f015f9054906101000a900473ffffffffffffffffffffffffffffffffffffffff1673ffffffffffffffffffffffffffffffffffffffff161480610d6457503373ffffffffffffffffffffffffffffffffffffffff165f803373ffffffffffffffffffffffffffffffffffffffff1673ffffffffffffffffffffffffffffffffffffffff1681526020019081526020015f205f015f9054906101000a900473ffffffffffffffffffffffffffffffffffffffff1673ffffffffffffffffffffffffffffffffffffffff16145b610da3576040517f08c379a0000000000000000000000000000000000000000000000000000000008152600401610d9a90611b17565b60405180910390fd5b818073ffffffffffffffffffffffffffffffffffffffff165f808373ffffffffffffffffffffffffffffffffffffffff1673ffffffffffffffffffffffffffffffffffffffff1681526020019081526020015f205f015f9054906101000a900473ffffffffffffffffffffffffffffffffffffffff1673ffffffffffffffffffffffffffffffffffffffff1614610e6f576040517f08c379a0000000000000000000000000000000000000000000000000000000008152600401610e66906116da565b60405180910390fd5b5f808473ffffffffffffffffffffffffffffffffffffffff1673ffffffffffffffffffffffffffffffffffffffff1681526020019081526020015f20600101805480602002602001604051908101604052809291908181526020015f905b828210156110d0578382905f5260205f2090600502016040518060a00160405290815f82018054610efd90611725565b80601f0160208091040260200160405190810160405280929190818152602001828054610f2990611725565b8015610f745780601f10610f4b57610100808354040283529160200191610f74565b820191905f5260205f20905b815481529060010190602001808311610f5757829003601f168201915b50505050508152602001600182018054610f8d90611725565b80601f0160208091040260200160405190810160405280929190818152602001828054610fb990611725565b80156110045780601f10610fdb57610100808354040283529160200191611004565b820191905f5260205f20905b815481529060010190602001808311610fe757829003601f168201915b50505050508152602001600282015f9054906101000a900473ffffffffffffffffffffffffffffffffffffffff1673ffffffffffffffffffffffffffffffffffffffff1673ffffffffffffffffffffffffffffffffffffffff168152602001600382015f9054906101000a900473ffffffffffffffffffffffffffffffffffffffff1673ffffffffffffffffffffffffffffffffffffffff1673ffffffffffffffffffffffffffffffffffffffff16815260200160048201548152505081526020019060010190610ecd565b50505050915050919050565b6001602052805f5260405f205f91509050805f015f9054906101000a900473ffffffffffffffffffffffffffffffffffffffff16905081565b5f604051905090565b5f80fd5b5f80fd5b5f73ffffffffffffffffffffffffffffffffffffffff82169050919050565b5f61114f82611126565b9050919050565b61115f81611145565b8114611169575f80fd5b50565b5f8135905061117a81611156565b92915050565b5f602082840312156111955761119461111e565b5b5f6111a28482850161116c565b91505092915050565b6111b481611145565b82525050565b5f6020820190506111cd5f8301846111ab565b92915050565b5f81519050919050565b5f82825260208201905092915050565b5f5b8381101561120a5780820151818401526020810190506111ef565b5f8484015250505050565b5f601f19601f8301169050919050565b5f61122f826111d3565b61123981856111dd565b93506112498185602086016111ed565b61125281611215565b840191505092915050565b5f6020820190508181035f8301526112758184611225565b905092915050565b5f80fd5b5f80fd5b7f4e487b71000000000000000000000000000000000000000000000000000000005f52604160045260245ffd5b6112bb82611215565b810181811067ffffffffffffffff821117156112da576112d9611285565b5b80604052505050565b5f6112ec611115565b90506112f882826112b2565b919050565b5f67ffffffffffffffff82111561131757611316611285565b5b61132082611215565b9050602081019050919050565b828183375f83830152505050565b5f61134d611348846112fd565b6112e3565b90508281526020810184848401111561136957611368611281565b5b61137484828561132d565b509392505050565b5f82601f8301126113905761138f61127d565b5b81356113a084826020860161133b565b91505092915050565b5f805f606084860312156113c0576113bf61111e565b5b5f84013567ffffffffffffffff8111156113dd576113dc611122565b5b6113e98682870161137c565b935050602084013567ffffffffffffffff81111561140a57611409611122565b5b6114168682870161137c565b92505060406114278682870161116c565b9150509250925092565b5f8115159050919050565b61144581611431565b82525050565b5f60208201905061145e5f83018461143c565b92915050565b5f81519050919050565b5f82825260208201905092915050565b5f819050602082019050919050565b5f82825260208201905092915050565b5f6114a7826111d3565b6114b1818561148d565b93506114c18185602086016111ed565b6114ca81611215565b840191505092915050565b6114de81611145565b82525050565b5f819050919050565b6114f6816114e4565b82525050565b5f60a083015f8301518482035f860152611516828261149d565b91505060208301518482036020860152611530828261149d565b915050604083015161154560408601826114d5565b50606083015161155860608601826114d5565b50608083015161156b60808601826114ed565b508091505092915050565b5f61158183836114fc565b905092915050565b5f602082019050919050565b5f61159f82611464565b6115a9818561146e565b9350836020820285016115bb8561147e565b805f5b858110156115f657848403895281516115d78582611576565b94506115e283611589565b925060208a019950506001810190506115be565b50829750879550505050505092915050565b5f6020820190508181035f8301526116208184611595565b905092915050565b7f53656e646572206973206e6f74206120646f63746f72000000000000000000005f82015250565b5f61165c6016836111dd565b915061166782611628565b602082019050919050565b5f6020820190508181035f83015261168981611650565b9050919050565b7f50617469656e7420646f6573206e6f74206578697374000000000000000000005f82015250565b5f6116c46016836111dd565b91506116cf82611690565b602082019050919050565b5f6020820190508181035f8301526116f1816116b8565b9050919050565b7f4e487b71000000000000000000000000000000000000000000000000000000005f52602260045260245ffd5b5f600282049050600182168061173c57607f821691505b60208210810361174f5761174e6116f8565b5b50919050565b5f819050815f5260205f209050919050565b5f6020601f8301049050919050565b5f82821b905092915050565b5f600883026117b17fffffffffffffffffffffffffffffffffffffffffffffffffffffffffffffffff82611776565b6117bb8683611776565b95508019841693508086168417925050509392505050565b5f819050919050565b5f6117f66117f16117ec846114e4565b6117d3565b6114e4565b9050919050565b5f819050919050565b61180f836117dc565b61182361181b826117fd565b848454611782565b825550505050565b5f90565b61183761182b565b611842818484611806565b505050565b5b818110156118655761185a5f8261182f565b600181019050611848565b5050565b601f8211156118aa5761187b81611755565b61188484611767565b81016020851015611893578190505b6118a761189f85611767565b830182611847565b50505b505050565b5f82821c905092915050565b5f6118ca5f19846008026118af565b1980831691505092915050565b5f6118e283836118bb565b9150826002028217905092915050565b6118fb826111d3565b67ffffffffffffffff81111561191457611913611285565b5b61191e8254611725565b611929828285611869565b5f60209050601f83116001811461195a575f8415611948578287015190505b61195285826118d7565b8655506119b9565b601f19841661196886611755565b5f5b8281101561198f5784890151825560018201915060208501945060208101905061196a565b868310156119ac57848901516119a8601f8916826118bb565b8355505b6001600288020188555050505b505050505050565b5f6060820190508181035f8301526119d98186611225565b90506119e860208301856111ab565b6119f560408301846111ab565b949350505050565b7f546869732070617469656e7420616c7265616479206578697374732e000000005f82015250565b5f611a31601c836111dd565b9150611a3c826119fd565b602082019050919050565b5f6020820190508181035f830152611a5e81611a25565b9050919050565b7f5468697320646f63746f7220616c7265616479206578697374732e00000000005f82015250565b5f611a99601b836111dd565b9150611aa482611a65565b602082019050919050565b5f6020820190508181035f830152611ac681611a8d565b9050919050565b7f53656e64657220646f6573206e6f7420657869737400000000000000000000005f82015250565b5f611b016015836111dd565b9150611b0c82611acd565b602082019050919050565b5f6020820190508181035f830152611b2e81611af5565b905091905056fea26469706673582212203a79763b5c0f07d832882634c88c148f2bc0ac9d7b4ba2cd47b2b4ed8efc27c864736f6c63430008150033",
  "immutableReferences": {},
  "source": "// SPDX-License-Identifier: MIT\r\npragma solidity ^0.8.0;\r\n\r\ncontract HEALTHRECORD { \r\n  struct Record { \r\n    string cid;\r\n    string fileName; \r\n    address patientId;\r\n    address doctorId;\r\n    uint256 timeAdded;\r\n  }\r\n\r\n  struct Patient {\r\n    address id;\r\n    Record[] records;\r\n  }\r\n\r\n  struct Doctor {\r\n    address id;\r\n  }\r\n\r\n  mapping (address => Patient) public patients;\r\n  mapping (address => Doctor) public doctors;\r\n\r\n  event PatientAdded(address patientId);\r\n  event DoctorAdded(address doctorId);\r\n  event RecordAdded(string cid, address patientId, address doctorId); \r\n\r\n  // modifiers\r\n  modifier senderExists {\r\n    require(doctors[msg.sender].id == msg.sender || patients[msg.sender].id == msg.sender, \"Sender does not exist\");\r\n    _;\r\n  }\r\n\r\n  modifier patientExists(address patientId) {\r\n    require(patients[patientId].id == patientId, \"Patient does not exist\");\r\n    _;\r\n  }\r\n\r\n  modifier senderIsDoctor {\r\n    require(doctors[msg.sender].id == msg.sender, \"Sender is not a doctor\");\r\n    _;\r\n  }\r\n\r\n  // functions\r\n  function addPatient(address _patientId) public senderIsDoctor {\r\n    require(patients[_patientId].id != _patientId, \"This patient already exists.\");\r\n    patients[_patientId].id = _patientId;\r\n\r\n    emit PatientAdded(_patientId);\r\n  }\r\n\r\n  function addDoctor() public {\r\n    require(doctors[msg.sender].id != msg.sender, \"This doctor already exists.\");\r\n    doctors[msg.sender].id = msg.sender;\r\n\r\n    emit DoctorAdded(msg.sender);\r\n  }\r\n\r\n  function addRecord(string memory _cid, string memory _fileName, address _patientId) public senderIsDoctor patientExists(_patientId) {\r\n    Record memory record = Record(_cid, _fileName, _patientId, msg.sender, block.timestamp);\r\n    patients[_patientId].records.push(record);\r\n\r\n    emit RecordAdded(_cid, _patientId, msg.sender);\r\n  } \r\n\r\n  function getRecords(address _patientId) public view senderExists patientExists(_patientId) returns (Record[] memory) {\r\n    return patients[_patientId].records;\r\n  } \r\n\r\n  function getSenderRole() public view returns (string memory) {\r\n    if (doctors[msg.sender].id == msg.sender) {\r\n      return \"doctor\";\r\n    } else if (patients[msg.sender].id == msg.sender) {\r\n      return \"patient\";\r\n    } else {\r\n      return \"unknown\";\r\n    }\r\n  }\r\n\r\n  function getPatientExists(address _patientId) public view senderIsDoctor returns (bool) {\r\n    return patients[_patientId].id == _patientId;\r\n  }\r\n}\r\n",
  "sourcePath": "A:\\HealthRecord\\HealthLedger\\truffle\\contracts\\HEALTHRECORD.sol",
  "compiler": {
    "name": "solc",
    "version": "0.8.21+commit.d9974bed.Emscripten.clang"
  },
  "schemaVersion": "3.4.16",
  "updatedAt": "2024-12-06T06:59:35.179Z",
  "networkType": "ethereum",
  "devdoc": {
    "kind": "dev",
    "methods": {},
    "version": 1
  },
  "userdoc": {
    "kind": "user",
    "methods": {},
    "version": 1
  }
}